{
  "contractName": "Vinted",
  "abi": [
    {
      "inputs": [],
      "payable": true,
      "stateMutability": "payable",
      "type": "constructor"
    },
    {
      "anonymous": false,
      "inputs": [
        {
          "indexed": false,
          "name": "orderno",
          "type": "uint256"
        },
        {
          "indexed": false,
          "name": "buyer",
          "type": "address"
        },
        {
          "indexed": false,
          "name": "sellerAddr",
          "type": "address"
        },
        {
          "indexed": false,
          "name": "date",
          "type": "uint256"
        },
        {
          "indexed": false,
          "name": "spPrice",
          "type": "uint256"
        },
        {
          "indexed": false,
          "name": "product",
          "type": "string"
        },
        {
          "indexed": false,
          "name": "safepay",
          "type": "bool"
        },
        {
          "indexed": false,
          "name": "init",
          "type": "bool"
        }
      ],
      "name": "OrderSent",
      "type": "event"
    },
    {
      "anonymous": false,
      "inputs": [
        {
          "indexed": false,
          "name": "buyer",
          "type": "address"
        },
        {
          "indexed": false,
          "name": "orderno",
          "type": "uint256"
        },
        {
          "indexed": false,
          "name": "spPrice",
          "type": "uint256"
        },
        {
          "indexed": false,
          "name": "sellerPrice",
          "type": "uint256"
        },
        {
          "indexed": false,
          "name": "shipmentPrice",
          "type": "uint256"
        }
      ],
      "name": "PriceSent",
      "type": "event"
    },
    {
      "anonymous": false,
      "inputs": [
        {
          "indexed": false,
          "name": "courier",
          "type": "address"
        },
        {
          "indexed": false,
          "name": "buyer",
          "type": "address"
        },
        {
          "indexed": false,
          "name": "orderno",
          "type": "uint256"
        },
        {
          "indexed": false,
          "name": "invoiceno",
          "type": "uint256"
        },
        {
          "indexed": false,
          "name": "deliveryDate",
          "type": "uint256"
        }
      ],
      "name": "InvoiceSent",
      "type": "event"
    },
    {
      "anonymous": false,
      "inputs": [
        {
          "indexed": false,
          "name": "buyer",
          "type": "address"
        },
        {
          "indexed": false,
          "name": "courier",
          "type": "address"
        },
        {
          "indexed": false,
          "name": "invoiceno",
          "type": "uint256"
        },
        {
          "indexed": false,
          "name": "orderno",
          "type": "uint256"
        },
        {
          "indexed": false,
          "name": "timestamp",
          "type": "uint256"
        }
      ],
      "name": "OrderDelivered",
      "type": "event"
    },
    {
      "anonymous": false,
      "inputs": [
        {
          "indexed": false,
          "name": "orderno",
          "type": "uint256"
        },
        {
          "indexed": false,
          "name": "spSafepay",
          "type": "uint256"
        },
        {
          "indexed": false,
          "name": "sellerSafepay",
          "type": "uint256"
        },
        {
          "indexed": false,
          "name": "courierSafepay",
          "type": "uint256"
        }
      ],
      "name": "SafepaySent",
      "type": "event"
    },
    {
      "constant": true,
      "inputs": [],
      "name": "getOrdersCount",
      "outputs": [
        {
          "name": "",
          "type": "uint256"
        }
      ],
      "payable": false,
      "stateMutability": "view",
      "type": "function"
    },
    {
      "constant": true,
      "inputs": [
        {
          "name": "index",
          "type": "uint256"
        }
      ],
      "name": "getOrder",
      "outputs": [
        {
          "name": "",
          "type": "uint256"
        },
        {
          "name": "",
          "type": "address"
        },
        {
          "name": "",
          "type": "address"
        },
        {
          "name": "",
          "type": "address"
        },
        {
          "name": "",
          "type": "uint256"
        },
        {
          "name": "",
          "type": "string"
        }
      ],
      "payable": false,
      "stateMutability": "view",
      "type": "function"
    },
    {
      "constant": true,
      "inputs": [],
      "name": "getInvoicesCount",
      "outputs": [
        {
          "name": "",
          "type": "uint256"
        }
      ],
      "payable": false,
      "stateMutability": "view",
      "type": "function"
    },
    {
      "constant": true,
      "inputs": [
        {
          "name": "index",
          "type": "uint256"
        }
      ],
      "name": "getInvoice",
      "outputs": [
        {
          "name": "",
          "type": "uint256"
        },
        {
          "name": "",
          "type": "uint256"
        },
        {
          "name": "",
          "type": "address"
        },
        {
          "name": "",
          "type": "bool"
        }
      ],
      "payable": false,
      "stateMutability": "view",
      "type": "function"
    },
    {
      "constant": false,
      "inputs": [
        {
          "name": "sellerAddr",
          "type": "address"
        },
        {
          "name": "product",
          "type": "string"
        }
      ],
      "name": "sendOrder",
      "outputs": [],
      "payable": true,
      "stateMutability": "payable",
      "type": "function"
    },
    {
      "constant": false,
      "inputs": [
        {
          "name": "orderno",
          "type": "uint256"
        },
        {
          "name": "spPrice",
          "type": "uint256"
        },
        {
          "name": "sellerPrice",
          "type": "uint256"
        },
        {
          "name": "shipmentPrice",
          "type": "uint256"
        }
      ],
      "name": "sendPrice",
      "outputs": [],
      "payable": true,
      "stateMutability": "payable",
      "type": "function"
    },
    {
      "constant": false,
      "inputs": [
        {
          "name": "orderno",
          "type": "uint256"
        }
      ],
      "name": "sendSafepay",
      "outputs": [],
      "payable": true,
      "stateMutability": "payable",
      "type": "function"
    },
    {
      "constant": false,
      "inputs": [
        {
          "name": "orderno",
          "type": "uint256"
        },
        {
          "name": "deliveryDate",
          "type": "uint256"
        },
        {
          "name": "courier",
          "type": "address"
        }
      ],
      "name": "sendInvoice",
      "outputs": [],
      "payable": true,
      "stateMutability": "payable",
      "type": "function"
    },
    {
      "constant": false,
      "inputs": [
        {
          "name": "invoiceno",
          "type": "uint256"
        }
      ],
      "name": "delivery",
      "outputs": [],
      "payable": true,
      "stateMutability": "payable",
      "type": "function"
    }
  ],
  "bytecode": "0x608060405260008054600160a060020a03191633179055610c85806100256000396000f3fe608060405260043610610092577c010000000000000000000000000000000000000000000000000000000060003504630252d9be81146100975780631144fd72146100c85780633a23cc0a146100e557806356e16ce61461013f57806390355fb9146101f5578063b5b3b0511461021c578063d09ef24114610231578063d4f125971461032c578063fe2852481461035e575b600080fd5b6100c6600480360360808110156100ad57600080fd5b508035906020810135906040810135906060013561037b565b005b6100c6600480360360208110156100de57600080fd5b5035610445565b3480156100f157600080fd5b5061010f6004803603602081101561010857600080fd5b50356105dc565b604080519485526020850193909352600160a060020a039091168383015215156060830152519081900360800190f35b6100c66004803603604081101561015557600080fd5b600160a060020a03823516919081019060408101602082013564010000000081111561018057600080fd5b82018360208201111561019257600080fd5b803590602001918460018302840111640100000000831117156101b457600080fd5b91908080601f01602080910402602001604051908101604052809392919081815260200183838082843760009201919091525092955061061e945050505050565b34801561020157600080fd5b5061020a610883565b60408051918252519081900360200190f35b34801561022857600080fd5b5061020a61088a565b34801561023d57600080fd5b5061025b6004803603602081101561025457600080fd5b5035610890565b6040518087815260200186600160a060020a0316600160a060020a0316815260200185600160a060020a0316600160a060020a0316815260200184600160a060020a0316600160a060020a0316815260200183815260200180602001828103825283818151815260200191508051906020019080838360005b838110156102ec5781810151838201526020016102d4565b50505050905090810190601f1680156103195780820380516001836020036101000a031916815260200191505b5097505050505050505060405180910390f35b6100c66004803603606081101561034257600080fd5b5080359060208101359060400135600160a060020a0316610978565b6100c66004803603602081101561037457600080fd5b5035610ac0565b6000848152600160205260409020600b015460ff16151561039b57600080fd5b60008481526001602081905260409091200154600160a060020a031633146103c257600080fd5b600084815260016020908152604091829020600881018690556002810185905560058101849055548251600160a060020a039091168152908101869052808201859052606081018490526080810183905290517ff6279bf548f739df045cd5d45d5d1053b55b6607637d3344516a77e42e5591be9181900360a00190a150505050565b60008181526002602081905260409091200154610100900460ff16151561046b57600080fd5b60008181526002602081815260408084209283018054600160ff199091168117909155835485529091529091206004810154600160a060020a031633146104b157600080fd5b80546004820154835460408051600160a060020a039485168152929093166020830152818301869052606082015242608082015290517f5357cff9836d666ee9df9a8670f4420ac1baffca5b907337a041728579655dbc9181900360a00190a16004810154600182015460008054600a850154604051600160a060020a039586169594851694909216926108fc8215029290818181858888f19350505050158015610560573d6000803e3d6000fd5b506006830154604051600160a060020a0384169180156108fc02916000818181858888f1935050505015801561059a573d6000803e3d6000fd5b506003830154604051600160a060020a0383169180156108fc02916000818181858888f193505050501580156105d4573d6000803e3d6000fd5b505050505050565b60008181526002602081815260408084208054808652600184529185206004015494869052918390529101548392600160a060020a03169060ff169193509193565b600380546001908101808355604080516101008101825233808252825160608181018552600160a060020a038a811683526000602084810182905284880182905280870194855287518085018952828152808201839052808901839052878901908152429488019485526080880183815260a089018e815260c08a0185905260e08a018d90529a84528b8352928990208851815490861673ffffffffffffffffffffffffffffffffffffffff19918216178255965180519c820180549d87169d89169d909d17909c558b83015160028201559a8901519b8b019b909b559951805160048b0180549190941695169490941790915582890151600589015591909401516006870155925160078601559151600885015591518051919492939261074e92600985019290910190610bc1565b5060c082015181600a015560e082015181600b0160006101000a81548160ff0219169083151502179055509050507fc98a1d1461ff4c8273a1cb422560ffe10ff533e5e367902d9093f81dded929e6600354828542600087600060016040518089815260200188600160a060020a0316600160a060020a0316815260200187600160a060020a0316600160a060020a03168152602001868152602001858152602001806020018415151515815260200183151515158152602001828103825285818151815260200191508051906020019080838360005b8381101561083d578181015183820152602001610825565b50505050905090810190601f16801561086a5780820380516001836020036101000a031916815260200191505b50995050505050505050505060405180910390a1505050565b6004545b90565b60035490565b60008181526001602081815260408084208054818501546004830154600784015460099094018054865160026101009a8316159a909a026000190190911698909804601f810188900488028901880190965285885288978897889788976060978e97600160a060020a03918216979082169691169491939092839183018282801561095c5780601f106109315761010080835404028352916020019161095c565b820191906000526020600020905b81548152906001019060200180831161093f57829003601f168201915b5050505050905095509550955095509550955091939550919395565b6000838152600160205260409020600b015460ff16151561099857600080fd5b60008381526001602081905260409091200154600160a060020a03163381146109c057600080fd5b600480546001908101808355604080516080818101835289825260208083018a8152600084860181815260608087018a81529883526002808652888420975188559351878b01559051959092018054975115156101000261ff001996151560ff199099169890981795909516969096179093558a8552948552928290208086018054600160a060020a03808b1673ffffffffffffffffffffffffffffffffffffffff199092168217909255915496548451928352961694810194909452838201899052830193909352810185905290517f7eb3d6b088e11bc3d6ab4d685b7c6d1e1f4510f75583fd1fdced94b057ce5c6b9181900360a00190a150505050565b6000818152600160205260409020600b015460ff161515610ae057600080fd5b60008181526001602052604090208054600160a060020a03163314610b0457600080fd5b34816004016001015482600101600101548360080154010166038d7ea4c680000211151515610b3257600080fd5b6008810154600083815260016020908152604091829020670de0b6b3a7640000938402600a8201819055600286015485026003830181905560058701549095026006909201829055835187815292830152818301939093526060810192909252517ff29a4f53bc6935b96fdc8b7ced601c3b87cb178c9b45322dd75c33ef5e5fba1c9181900360800190a15050565b828054600181600116156101000203166002900490600052602060002090601f016020900481019282601f10610c0257805160ff1916838001178555610c2f565b82800160010185558215610c2f579182015b82811115610c2f578251825591602001919060010190610c14565b50610c3b929150610c3f565b5090565b61088791905b80821115610c3b5760008155600101610c4556fea165627a7a72305820f4dbdd3619ccaaeb885d24e534c7cf60f18aace16bd202ddb553c05baf5d10440029",
  "source": "pragma solidity >=0.4.21 <0.7.0;\n\ncontract Vinted {\n    address payable serviceProvider;\n\n    constructor() public payable {\n        serviceProvider = msg.sender;\n    }\n    \n    struct Order {\n        address payable buyer;\n        Seller seller;\n        Shipment shipment;\n        uint date;\n        uint spPrice;\n        string product;\n        \n        uint safepay;\n        bool init;\n    }\n    \n    struct Seller {\n        address payable addr;\n        uint price;\n        uint safepay;\n    }\n    \n    struct Shipment {\n        address payable addr;\n        uint price;\n        uint safepay;\n    }\n    \n    struct Invoice {\n        uint orderno;\n        uint deliveryDate;\n        bool delivered;\n        \n        bool init;\n    }\n    \n    mapping (uint => Order) orders;\n    mapping (uint => Invoice) invoices;\n    \n    uint orderseq;\n    uint invoiceseq;\n    \n    event OrderSent(uint orderno, address buyer, address sellerAddr, uint date, uint spPrice, string product, bool safepay, bool init);\n    event PriceSent(address buyer, uint orderno, uint spPrice, uint sellerPrice, uint shipmentPrice);\n    event InvoiceSent(address courier, address buyer, uint orderno, uint invoiceno, uint deliveryDate);\n    event OrderDelivered(address buyer, address courier, uint invoiceno, uint orderno, uint timestamp);\n    event SafepaySent(uint orderno, uint spSafepay, uint sellerSafepay, uint courierSafepay);\n    \n    function getOrdersCount() public view returns(uint) {\n        return orderseq;\n    }\n    \n    function getOrder(uint index) public view returns(uint, address, address, address, uint, string memory) {\n        return (index, orders[index].buyer, orders[index].seller.addr, orders[index].shipment.addr, orders[index].date, orders[index].product);\n    }\n    \n    function getInvoicesCount() public view returns(uint) {\n        return invoiceseq;\n    }\n    \n    function getInvoice(uint index) public view returns(uint, uint, address, bool) {\n        return (index, invoices[index].orderno, orders[invoices[index].orderno].shipment.addr, invoices[index].delivered);\n    }\n    \n    function sendOrder(address payable sellerAddr, string memory product) payable public {\n        orderseq++;\n        address payable buyerAddr = msg.sender;\n        orders[orderseq] = Order(buyerAddr, Seller(sellerAddr, 0, 0), Shipment(address(0), 0, 0), now, 0, product, 0, true);\n        \n        emit OrderSent(orderseq, buyerAddr, sellerAddr, now, 0, product, false, true);\n    }\n    \n    function sendPrice(uint orderno, uint spPrice, uint sellerPrice, uint shipmentPrice) payable public {\n        require(orders[orderno].init);\n        require(orders[orderno].seller.addr == msg.sender);\n        \n        orders[orderno].spPrice = spPrice;\n        orders[orderno].seller.price = sellerPrice;\n        orders[orderno].shipment.price = shipmentPrice;\n        \n        emit PriceSent(orders[orderno].buyer, orderno, spPrice, sellerPrice, shipmentPrice);\n    }\n    \n    function sendSafepay(uint orderno) payable public {\n        require(orders[orderno].init);\n    \n        Order storage _order = orders[orderno];\n        require(msg.sender == _order.buyer);\n    \n        require(1 finney * (_order.spPrice + _order.seller.price + _order.shipment.price) <= msg.value);\n    \n        orders[orderno].safepay = _order.spPrice * 1 ether;\n        orders[orderno].seller.safepay = _order.seller.price * 1 ether;\n        orders[orderno].shipment.safepay = _order.shipment.price * 1 ether;\n        emit SafepaySent(orderno, orders[orderno].safepay, orders[orderno].seller.safepay, orders[orderno].shipment.safepay);\n    }\n    \n    function sendInvoice(uint orderno, uint deliveryDate, address payable courier) payable public {\n        require(orders[orderno].init);\n        address payable seller = orders[orderno].seller.addr;\n        require(msg.sender == seller);\n        \n        invoiceseq++;\n        \n        invoices[invoiceseq] = Invoice(orderno, deliveryDate, false, true);\n        orders[orderno].shipment.addr = courier;\n        \n        emit InvoiceSent(courier, orders[orderno].buyer, orderno, invoiceseq, deliveryDate);\n    }\n    \n    function delivery(uint invoiceno) external payable {\n        require(invoices[invoiceno].init);\n    \n        Invoice storage _invoice = invoices[invoiceno];\n        _invoice.delivered = true;\n        Order storage _order     = orders[_invoice.orderno];\n        require(msg.sender == _order.shipment.addr);\n    \n        emit OrderDelivered(_order.buyer, _order.shipment.addr, invoiceno, _invoice.orderno, now);\n\n        address payable courier = _order.shipment.addr;\n        address payable seller = _order.seller.addr;\n        \n        serviceProvider.transfer(_order.safepay);\n        courier.transfer(_order.shipment.safepay);\n        seller.transfer(_order.seller.safepay);\n    }\n}",
  "sourcePath": "/home/timas/Workspace/blockchain/blockchain-4/contracts/Vinted.sol",
  "compiler": {
    "name": "solc",
    "version": "0.5.1+commit.c8a2cb62.Emscripten.clang"
  },
  "schemaVersion": "3.0.19",
  "updatedAt": "2020-01-15T00:56:42.002Z",
  "networkType": "ethereum",
  "devdoc": {
    "methods": {}
  },
  "userdoc": {
    "methods": {}
  }
}