{
  "contractName": "Vinted",
  "abi": [
    {
      "inputs": [],
      "payable": true,
      "stateMutability": "payable",
      "type": "constructor"
    },
    {
      "anonymous": false,
      "inputs": [
        {
          "indexed": false,
          "name": "orderno",
          "type": "uint256"
        },
        {
          "indexed": false,
          "name": "buyer",
          "type": "address"
        },
        {
          "indexed": false,
          "name": "sellerAddr",
          "type": "address"
        },
        {
          "indexed": false,
          "name": "date",
          "type": "uint256"
        },
        {
          "indexed": false,
          "name": "spPrice",
          "type": "uint256"
        },
        {
          "indexed": false,
          "name": "product",
          "type": "string"
        },
        {
          "indexed": false,
          "name": "safepay",
          "type": "bool"
        },
        {
          "indexed": false,
          "name": "init",
          "type": "bool"
        }
      ],
      "name": "OrderSent",
      "type": "event"
    },
    {
      "anonymous": false,
      "inputs": [
        {
          "indexed": false,
          "name": "buyer",
          "type": "address"
        },
        {
          "indexed": false,
          "name": "orderno",
          "type": "uint256"
        },
        {
          "indexed": false,
          "name": "spPrice",
          "type": "uint256"
        },
        {
          "indexed": false,
          "name": "sellerPrice",
          "type": "uint256"
        },
        {
          "indexed": false,
          "name": "shipmentPrice",
          "type": "uint256"
        }
      ],
      "name": "PriceSent",
      "type": "event"
    },
    {
      "anonymous": false,
      "inputs": [
        {
          "indexed": false,
          "name": "courier",
          "type": "address"
        },
        {
          "indexed": false,
          "name": "buyer",
          "type": "address"
        },
        {
          "indexed": false,
          "name": "orderno",
          "type": "uint256"
        },
        {
          "indexed": false,
          "name": "invoiceno",
          "type": "uint256"
        },
        {
          "indexed": false,
          "name": "deliveryDate",
          "type": "uint256"
        }
      ],
      "name": "InvoiceSent",
      "type": "event"
    },
    {
      "anonymous": false,
      "inputs": [
        {
          "indexed": false,
          "name": "buyer",
          "type": "address"
        },
        {
          "indexed": false,
          "name": "courier",
          "type": "address"
        },
        {
          "indexed": false,
          "name": "invoiceno",
          "type": "uint256"
        },
        {
          "indexed": false,
          "name": "orderno",
          "type": "uint256"
        },
        {
          "indexed": false,
          "name": "timestamp",
          "type": "uint256"
        }
      ],
      "name": "OrderDelivered",
      "type": "event"
    },
    {
      "anonymous": false,
      "inputs": [
        {
          "indexed": false,
          "name": "orderno",
          "type": "uint256"
        },
        {
          "indexed": false,
          "name": "spSafepay",
          "type": "uint256"
        },
        {
          "indexed": false,
          "name": "sellerSafepay",
          "type": "uint256"
        },
        {
          "indexed": false,
          "name": "courierSafepay",
          "type": "uint256"
        }
      ],
      "name": "SafepaySent",
      "type": "event"
    },
    {
      "constant": false,
      "inputs": [
        {
          "name": "sellerAddr",
          "type": "address"
        },
        {
          "name": "product",
          "type": "string"
        }
      ],
      "name": "sendOrder",
      "outputs": [],
      "payable": true,
      "stateMutability": "payable",
      "type": "function"
    },
    {
      "constant": false,
      "inputs": [
        {
          "name": "orderno",
          "type": "uint256"
        },
        {
          "name": "spPrice",
          "type": "uint256"
        },
        {
          "name": "sellerPrice",
          "type": "uint256"
        },
        {
          "name": "shipmentPrice",
          "type": "uint256"
        }
      ],
      "name": "sendPrice",
      "outputs": [],
      "payable": true,
      "stateMutability": "payable",
      "type": "function"
    },
    {
      "constant": false,
      "inputs": [
        {
          "name": "orderno",
          "type": "uint256"
        }
      ],
      "name": "sendSafepay",
      "outputs": [],
      "payable": true,
      "stateMutability": "payable",
      "type": "function"
    },
    {
      "constant": false,
      "inputs": [
        {
          "name": "orderno",
          "type": "uint256"
        },
        {
          "name": "deliveryDate",
          "type": "uint256"
        },
        {
          "name": "courier",
          "type": "address"
        }
      ],
      "name": "sendInvoice",
      "outputs": [],
      "payable": true,
      "stateMutability": "payable",
      "type": "function"
    },
    {
      "constant": false,
      "inputs": [
        {
          "name": "invoiceno",
          "type": "uint256"
        }
      ],
      "name": "delivery",
      "outputs": [],
      "payable": true,
      "stateMutability": "payable",
      "type": "function"
    }
  ],
  "bytecode": "0x608060405260008054600160a060020a0319163317905561094d806100256000396000f3fe608060405260043610610066577c010000000000000000000000000000000000000000000000000000000060003504630252d9be811461006b5780631144fd721461009c57806356e16ce6146100b9578063d4f125971461016f578063fe285248146101a1575b600080fd5b61009a6004803603608081101561008157600080fd5b50803590602081013590604081013590606001356101be565b005b61009a600480360360208110156100b257600080fd5b5035610288565b61009a600480360360408110156100cf57600080fd5b600160a060020a0382351691908101906040810160208201356401000000008111156100fa57600080fd5b82018360208201111561010c57600080fd5b8035906020019184600183028401116401000000008311171561012e57600080fd5b91908080601f01602080910402602001604051908101604052809392919081815260200183838082843760009201919091525092955061040a945050505050565b61009a6004803603606081101561018557600080fd5b5080359060208101359060400135600160a060020a031661066f565b61009a600480360360208110156101b757600080fd5b5035610786565b6000848152600160205260409020600b015460ff1615156101de57600080fd5b60008481526001602081905260409091200154600160a060020a0316331461020557600080fd5b600084815260016020908152604091829020600881018690556002810185905560058101849055548251600160a060020a039091168152908101869052808201859052606081018490526080810183905290517ff6279bf548f739df045cd5d45d5d1053b55b6607637d3344516a77e42e5591be9181900360a00190a150505050565b6000818152600260208190526040909120015460ff1615156102a957600080fd5b60008181526002602090815260408083208054845260019092529091206004810154600160a060020a031633146102df57600080fd5b80546004820154835460408051600160a060020a039485168152929093166020830152818301869052606082015242608082015290517f5357cff9836d666ee9df9a8670f4420ac1baffca5b907337a041728579655dbc9181900360a00190a16004810154600182015460008054600a850154604051600160a060020a039586169594851694909216926108fc8215029290818181858888f1935050505015801561038e573d6000803e3d6000fd5b506006830154604051600160a060020a0384169180156108fc02916000818181858888f193505050501580156103c8573d6000803e3d6000fd5b506003830154604051600160a060020a0383169180156108fc02916000818181858888f19350505050158015610402573d6000803e3d6000fd5b505050505050565b600380546001908101808355604080516101008101825233808252825160608181018552600160a060020a038a811683526000602084810182905284880182905280870194855287518085018952828152808201839052808901839052878901908152429488019485526080880183815260a089018e815260c08a0185905260e08a018d90529a84528b8352928990208851815490861673ffffffffffffffffffffffffffffffffffffffff19918216178255965180519c820180549d87169d89169d909d17909c558b83015160028201559a8901519b8b019b909b559951805160048b0180549190941695169490941790915582890151600589015591909401516006870155925160078601559151600885015591518051919492939261053a92600985019290910190610886565b5060c082015181600a015560e082015181600b0160006101000a81548160ff0219169083151502179055509050507fc98a1d1461ff4c8273a1cb422560ffe10ff533e5e367902d9093f81dded929e6600354828542600087600060016040518089815260200188600160a060020a0316600160a060020a0316815260200187600160a060020a0316600160a060020a03168152602001868152602001858152602001806020018415151515815260200183151515158152602001828103825285818151815260200191508051906020019080838360005b83811015610629578181015183820152602001610611565b50505050905090810190601f1680156106565780820380516001836020036101000a031916815260200191505b50995050505050505050505060405180910390a1505050565b6000838152600160205260409020600b015460ff16151561068f57600080fd5b600054600160a060020a031633146106a657600080fd5b600480546001908101808355604080516060808201835288825260208083018981528385018781526000968752600280845286882095518655915185890155519301805460ff19169315159390931790925588845293815291819020808501805473ffffffffffffffffffffffffffffffffffffffff1916600160a060020a038881169182179092559154955483519283529516928101929092528181018790529181019290925260808201849052517f7eb3d6b088e11bc3d6ab4d685b7c6d1e1f4510f75583fd1fdced94b057ce5c6b9160a0908290030190a1505050565b6000818152600160205260409020600b015460ff1615156107a657600080fd5b60008181526001602052604090208054600160a060020a031633146107ca57600080fd5b34816004016001015482600101600101548360080154010166038d7ea4c6800002111515156107f857600080fd5b600881015460008381526001602090815260409182902066038d7ea4c68000938402600a8201819055600286015485026003830181905560058701549095026006909201829055835187815292830152818301939093526060810192909252517ff29a4f53bc6935b96fdc8b7ced601c3b87cb178c9b45322dd75c33ef5e5fba1c9181900360800190a15050565b828054600181600116156101000203166002900490600052602060002090601f016020900481019282601f106108c757805160ff19168380011785556108f4565b828001600101855582156108f4579182015b828111156108f45782518255916020019190600101906108d9565b50610900929150610904565b5090565b61091e91905b80821115610900576000815560010161090a565b9056fea165627a7a72305820275bf134f77dae33de824561ed08ef7b4e15213dfc542e987ff12af1c6495be60029",
  "source": "pragma solidity >=0.4.21 <0.7.0;\n\ncontract Vinted {\n    address payable serviceProvider;\n\n    constructor() public payable {\n        serviceProvider = msg.sender;\n    }\n    \n    struct Order {\n        address payable buyer;\n        Seller seller;\n        Shipment shipment;\n        uint date;\n        uint spPrice;\n        string product;\n        \n        uint safepay;\n        bool init;\n    }\n    \n    struct Seller {\n        address payable addr;\n        uint price;\n        uint safepay;\n    }\n    \n    struct Shipment {\n        address payable addr;\n        uint price;\n        uint safepay;\n    }\n    \n    struct Invoice {\n        uint orderno;\n        uint deliveryDate;\n        \n        bool init;\n    }\n    \n    mapping (uint => Order) orders;\n    mapping (uint => Invoice) invoices;\n    \n    uint orderseq;\n    uint invoiceseq;\n    \n    event OrderSent(uint orderno, address buyer, address sellerAddr, uint date, uint spPrice, string product, bool safepay, bool init);\n    event PriceSent(address buyer, uint orderno, uint spPrice, uint sellerPrice, uint shipmentPrice);\n    event InvoiceSent(address courier, address buyer, uint orderno, uint invoiceno, uint deliveryDate);\n    event OrderDelivered(address buyer, address courier, uint invoiceno, uint orderno, uint timestamp);\n    event SafepaySent(uint orderno, uint spSafepay, uint sellerSafepay, uint courierSafepay);\n    \n    function sendOrder(address payable sellerAddr, string memory product) payable public {\n        orderseq++;\n        address payable buyerAddr = msg.sender;\n        orders[orderseq] = Order(buyerAddr, Seller(sellerAddr, 0, 0), Shipment(address(0), 0, 0), now, 0, product, 0, true);\n        \n        emit OrderSent(orderseq, buyerAddr, sellerAddr, now, 0, product, false, true);\n    }\n    \n    function sendPrice(uint orderno, uint spPrice, uint sellerPrice, uint shipmentPrice) payable public {\n        require(orders[orderno].init);\n        require(orders[orderno].seller.addr == msg.sender);\n        \n        orders[orderno].spPrice = spPrice;\n        orders[orderno].seller.price = sellerPrice;\n        orders[orderno].shipment.price = shipmentPrice;\n        \n        emit PriceSent(orders[orderno].buyer, orderno, spPrice, sellerPrice, shipmentPrice);\n    }\n    \n    function sendSafepay(uint orderno) payable public {\n        require(orders[orderno].init);\n    \n        Order storage _order = orders[orderno];\n        require(msg.sender == _order.buyer);\n    \n        require(1 finney * (_order.spPrice + _order.seller.price + _order.shipment.price) <= msg.value);\n    \n        orders[orderno].safepay = _order.spPrice * 1 finney;\n        orders[orderno].seller.safepay = _order.seller.price * 1 finney;\n        orders[orderno].shipment.safepay = _order.shipment.price * 1 finney;\n        emit SafepaySent(orderno, orders[orderno].safepay, orders[orderno].seller.safepay, orders[orderno].shipment.safepay);\n    }\n    \n    function sendInvoice(uint orderno, uint deliveryDate, address payable courier) payable public {\n        require(orders[orderno].init);\n        require(msg.sender == serviceProvider);\n        \n        invoiceseq++;\n        \n        invoices[invoiceseq] = Invoice(orderno, deliveryDate, true);\n        orders[orderno].shipment.addr = courier;\n        \n        emit InvoiceSent(courier, orders[orderno].buyer, orderno, invoiceseq, deliveryDate);\n    }\n    \n    function delivery(uint invoiceno) external payable {\n        require(invoices[invoiceno].init);\n    \n        Invoice storage _invoice = invoices[invoiceno];\n        Order storage _order     = orders[_invoice.orderno];\n        require(msg.sender == _order.shipment.addr);\n    \n        emit OrderDelivered(_order.buyer, _order.shipment.addr, invoiceno, _invoice.orderno, now);\n\n        address payable courier = _order.shipment.addr;\n        address payable seller = _order.seller.addr;\n        \n        serviceProvider.transfer(_order.safepay);\n        courier.transfer(_order.shipment.safepay);\n        seller.transfer(_order.seller.safepay);\n    }\n}",
  "sourcePath": "/home/timas/Workspace/blockchain/blockchain-4/contracts/Vinted.sol",
  "compiler": {
    "name": "solc",
    "version": "0.5.1+commit.c8a2cb62.Emscripten.clang"
  },
  "schemaVersion": "3.0.19",
  "updatedAt": "2019-12-19T15:53:44.184Z",
  "networkType": "ethereum",
  "devdoc": {
    "methods": {}
  },
  "userdoc": {
    "methods": {}
  }
}